{"abi":[{"type":"constructor","inputs":[{"name":"trustedForwarder","type":"address","internalType":"address"}],"stateMutability":"nonpayable"},{"type":"fallback","stateMutability":"payable"},{"type":"receive","stateMutability":"payable"},{"type":"function","name":"BASE_COOLDOWN","inputs":[],"outputs":[{"name":"","type":"uint32","internalType":"uint32"}],"stateMutability":"view"},{"type":"function","name":"DEFAULT_ADMIN_ROLE","inputs":[],"outputs":[{"name":"","type":"bytes32","internalType":"bytes32"}],"stateMutability":"view"},{"type":"function","name":"DOMAIN_SEPARATOR","inputs":[],"outputs":[{"name":"","type":"bytes32","internalType":"bytes32"}],"stateMutability":"view"},{"type":"function","name":"EMERGENCY_ROLE","inputs":[],"outputs":[{"name":"","type":"bytes32","internalType":"bytes32"}],"stateMutability":"view"},{"type":"function","name":"FAILED_COOLDOWN","inputs":[],"outputs":[{"name":"","type":"uint32","internalType":"uint32"}],"stateMutability":"view"},{"type":"function","name":"FIFTEEN_DAYS","inputs":[],"outputs":[{"name":"","type":"uint256","internalType":"uint256"}],"stateMutability":"view"},{"type":"function","name":"FIFTEEN_MINUTES","inputs":[],"outputs":[{"name":"","type":"uint256","internalType":"uint256"}],"stateMutability":"view"},{"type":"function","name":"GATE_GAS_LIMIT","inputs":[],"outputs":[{"name":"","type":"uint256","internalType":"uint256"}],"stateMutability":"view"},{"type":"function","name":"GATE_MANAGER_ROLE","inputs":[],"outputs":[{"name":"","type":"bytes32","internalType":"bytes32"}],"stateMutability":"view"},{"type":"function","name":"IMMUTABLE","inputs":[],"outputs":[{"name":"","type":"bool","internalType":"bool"}],"stateMutability":"view"},{"type":"function","name":"INCENTIVE_PER_ITEM","inputs":[],"outputs":[{"name":"","type":"uint256","internalType":"uint256"}],"stateMutability":"view"},{"type":"function","name":"MAX_ATTEMPTS","inputs":[],"outputs":[{"name":"","type":"uint8","internalType":"uint8"}],"stateMutability":"view"},{"type":"function","name":"MAX_BATCH_SIZE","inputs":[],"outputs":[{"name":"","type":"uint256","internalType":"uint256"}],"stateMutability":"view"},{"type":"function","name":"MAX_COOLDOWN","inputs":[],"outputs":[{"name":"","type":"uint32","internalType":"uint32"}],"stateMutability":"view"},{"type":"function","name":"MAX_DAILY_ATTEMPTS","inputs":[],"outputs":[{"name":"","type":"uint32","internalType":"uint32"}],"stateMutability":"view"},{"type":"function","name":"MAX_FAILED_ATTEMPTS","inputs":[],"outputs":[{"name":"","type":"uint32","internalType":"uint32"}],"stateMutability":"view"},{"type":"function","name":"MAX_INCENTIVE_PER_TX","inputs":[],"outputs":[{"name":"","type":"uint256","internalType":"uint256"}],"stateMutability":"view"},{"type":"function","name":"MIN_GAS_PER_ITEM","inputs":[],"outputs":[{"name":"","type":"uint256","internalType":"uint256"}],"stateMutability":"view"},{"type":"function","name":"PAUSER_ROLE","inputs":[],"outputs":[{"name":"","type":"bytes32","internalType":"bytes32"}],"stateMutability":"view"},{"type":"function","name":"SEVEN_DAYS","inputs":[],"outputs":[{"name":"","type":"uint256","internalType":"uint256"}],"stateMutability":"view"},{"type":"function","name":"THIRTY_DAYS","inputs":[],"outputs":[{"name":"","type":"uint256","internalType":"uint256"}],"stateMutability":"view"},{"type":"function","name":"VERSION","inputs":[],"outputs":[{"name":"","type":"string","internalType":"string"}],"stateMutability":"view"},{"type":"function","name":"attemptInfo","inputs":[{"name":"","type":"uint256","internalType":"uint256"}],"outputs":[{"name":"count","type":"uint32","internalType":"uint32"},{"name":"lastAttempt","type":"uint32","internalType":"uint32"},{"name":"lockUntil","type":"uint32","internalType":"uint32"}],"stateMutability":"view"},{"type":"function","name":"canClaimGift","inputs":[{"name":"giftId","type":"uint256","internalType":"uint256"}],"outputs":[{"name":"canClaim","type":"bool","internalType":"bool"},{"name":"timeRemaining","type":"uint256","internalType":"uint256"}],"stateMutability":"view"},{"type":"function","name":"claimGift","inputs":[{"name":"giftId","type":"uint256","internalType":"uint256"},{"name":"password","type":"string","internalType":"string"},{"name":"salt","type":"bytes32","internalType":"bytes32"},{"name":"gateData","type":"bytes","internalType":"bytes"}],"outputs":[],"stateMutability":"nonpayable"},{"type":"function","name":"createGift","inputs":[{"name":"tokenId","type":"uint256","internalType":"uint256"},{"name":"nftContract","type":"address","internalType":"address"},{"name":"password","type":"string","internalType":"string"},{"name":"salt","type":"bytes32","internalType":"bytes32"},{"name":"timeframe","type":"uint256","internalType":"uint256"},{"name":"giftMessage","type":"string","internalType":"string"},{"name":"gate","type":"address","internalType":"address"}],"outputs":[],"stateMutability":"nonpayable"},{"type":"function","name":"disabledGates","inputs":[{"name":"","type":"address","internalType":"address"}],"outputs":[{"name":"","type":"bool","internalType":"bool"}],"stateMutability":"view"},{"type":"function","name":"getAttemptInfo","inputs":[{"name":"giftId","type":"uint256","internalType":"uint256"}],"outputs":[{"name":"count","type":"uint32","internalType":"uint32"},{"name":"lastAttempt","type":"uint32","internalType":"uint32"},{"name":"lockUntil","type":"uint32","internalType":"uint32"}],"stateMutability":"view"},{"type":"function","name":"getGift","inputs":[{"name":"giftId","type":"uint256","internalType":"uint256"}],"outputs":[{"name":"creator","type":"address","internalType":"address"},{"name":"expirationTime","type":"uint96","internalType":"uint96"},{"name":"nftContract","type":"address","internalType":"address"},{"name":"tokenId","type":"uint256","internalType":"uint256"},{"name":"passwordHash","type":"bytes32","internalType":"bytes32"},{"name":"status","type":"uint8","internalType":"uint8"}],"stateMutability":"view"},{"type":"function","name":"getGiftMessage","inputs":[{"name":"giftId","type":"uint256","internalType":"uint256"}],"outputs":[{"name":"","type":"string","internalType":"string"}],"stateMutability":"view"},{"type":"function","name":"getRoleAdmin","inputs":[{"name":"role","type":"bytes32","internalType":"bytes32"}],"outputs":[{"name":"","type":"bytes32","internalType":"bytes32"}],"stateMutability":"view"},{"type":"function","name":"giftCounter","inputs":[],"outputs":[{"name":"","type":"uint256","internalType":"uint256"}],"stateMutability":"view"},{"type":"function","name":"giftGateOverride","inputs":[{"name":"","type":"uint256","internalType":"uint256"}],"outputs":[{"name":"","type":"address","internalType":"address"}],"stateMutability":"view"},{"type":"function","name":"giftMessages","inputs":[{"name":"","type":"uint256","internalType":"uint256"}],"outputs":[{"name":"","type":"string","internalType":"string"}],"stateMutability":"view"},{"type":"function","name":"giftNonces","inputs":[{"name":"","type":"uint256","internalType":"uint256"}],"outputs":[{"name":"","type":"uint256","internalType":"uint256"}],"stateMutability":"view"},{"type":"function","name":"gifts","inputs":[{"name":"","type":"uint256","internalType":"uint256"}],"outputs":[{"name":"creator","type":"address","internalType":"address"},{"name":"collection","type":"address","internalType":"address"},{"name":"gate","type":"address","internalType":"address"},{"name":"tokenId","type":"uint96","internalType":"uint96"},{"name":"expiresAt","type":"uint40","internalType":"uint40"},{"name":"claimed","type":"bool","internalType":"bool"},{"name":"returned","type":"bool","internalType":"bool"},{"name":"passHash","type":"bytes32","internalType":"bytes32"}],"stateMutability":"view"},{"type":"function","name":"grantRole","inputs":[{"name":"role","type":"bytes32","internalType":"bytes32"},{"name":"account","type":"address","internalType":"address"}],"outputs":[],"stateMutability":"nonpayable"},{"type":"function","name":"hasRole","inputs":[{"name":"role","type":"bytes32","internalType":"bytes32"},{"name":"account","type":"address","internalType":"address"}],"outputs":[{"name":"","type":"bool","internalType":"bool"}],"stateMutability":"view"},{"type":"function","name":"hourlyFailedOps","inputs":[{"name":"","type":"uint256","internalType":"uint256"}],"outputs":[{"name":"","type":"uint256","internalType":"uint256"}],"stateMutability":"view"},{"type":"function","name":"isGiftExpired","inputs":[{"name":"giftId","type":"uint256","internalType":"uint256"}],"outputs":[{"name":"","type":"bool","internalType":"bool"}],"stateMutability":"view"},{"type":"function","name":"isTrustedForwarder","inputs":[{"name":"forwarder","type":"address","internalType":"address"}],"outputs":[{"name":"","type":"bool","internalType":"bool"}],"stateMutability":"view"},{"type":"function","name":"maxFailedUserOpsPerHour","inputs":[],"outputs":[{"name":"","type":"uint256","internalType":"uint256"}],"stateMutability":"view"},{"type":"function","name":"onERC1155BatchReceived","inputs":[{"name":"","type":"address","internalType":"address"},{"name":"","type":"address","internalType":"address"},{"name":"","type":"uint256[]","internalType":"uint256[]"},{"name":"","type":"uint256[]","internalType":"uint256[]"},{"name":"","type":"bytes","internalType":"bytes"}],"outputs":[{"name":"","type":"bytes4","internalType":"bytes4"}],"stateMutability":"pure"},{"type":"function","name":"onERC1155Received","inputs":[{"name":"","type":"address","internalType":"address"},{"name":"","type":"address","internalType":"address"},{"name":"","type":"uint256","internalType":"uint256"},{"name":"","type":"uint256","internalType":"uint256"},{"name":"","type":"bytes","internalType":"bytes"}],"outputs":[{"name":"","type":"bytes4","internalType":"bytes4"}],"stateMutability":"pure"},{"type":"function","name":"onERC721Received","inputs":[{"name":"","type":"address","internalType":"address"},{"name":"","type":"address","internalType":"address"},{"name":"","type":"uint256","internalType":"uint256"},{"name":"","type":"bytes","internalType":"bytes"}],"outputs":[{"name":"","type":"bytes4","internalType":"bytes4"}],"stateMutability":"pure"},{"type":"function","name":"pause","inputs":[],"outputs":[],"stateMutability":"nonpayable"},{"type":"function","name":"paused","inputs":[],"outputs":[{"name":"","type":"bool","internalType":"bool"}],"stateMutability":"view"},{"type":"function","name":"paymasterData","inputs":[{"name":"","type":"address","internalType":"address"}],"outputs":[{"name":"dailyAttempts","type":"uint32","internalType":"uint32"},{"name":"lastResetDay","type":"uint32","internalType":"uint32"},{"name":"failedAttempts","type":"uint32","internalType":"uint32"},{"name":"cooldownUntil","type":"uint32","internalType":"uint32"}],"stateMutability":"view"},{"type":"function","name":"paymasterMinBalance","inputs":[],"outputs":[{"name":"","type":"uint256","internalType":"uint256"}],"stateMutability":"view"},{"type":"function","name":"renounceRole","inputs":[{"name":"role","type":"bytes32","internalType":"bytes32"},{"name":"callerConfirmation","type":"address","internalType":"address"}],"outputs":[],"stateMutability":"nonpayable"},{"type":"function","name":"returnExpiredGift","inputs":[{"name":"giftId","type":"uint256","internalType":"uint256"}],"outputs":[],"stateMutability":"nonpayable"},{"type":"function","name":"revokeRole","inputs":[{"name":"role","type":"bytes32","internalType":"bytes32"},{"name":"account","type":"address","internalType":"address"}],"outputs":[],"stateMutability":"nonpayable"},{"type":"function","name":"setGateStatus","inputs":[{"name":"gate","type":"address","internalType":"address"},{"name":"disabled","type":"bool","internalType":"bool"}],"outputs":[],"stateMutability":"nonpayable"},{"type":"function","name":"supportsInterface","inputs":[{"name":"interfaceId","type":"bytes4","internalType":"bytes4"}],"outputs":[{"name":"","type":"bool","internalType":"bool"}],"stateMutability":"view"},{"type":"function","name":"trustedForwarder","inputs":[],"outputs":[{"name":"","type":"address","internalType":"address"}],"stateMutability":"view"},{"type":"function","name":"unpause","inputs":[],"outputs":[],"stateMutability":"nonpayable"},{"type":"function","name":"usedSignatures","inputs":[{"name":"","type":"bytes32","internalType":"bytes32"}],"outputs":[{"name":"","type":"bool","internalType":"bool"}],"stateMutability":"view"},{"type":"function","name":"whitelistedMethods","inputs":[{"name":"","type":"bytes4","internalType":"bytes4"}],"outputs":[{"name":"","type":"bool","internalType":"bool"}],"stateMutability":"view"},{"type":"function","name":"withdraw","inputs":[{"name":"amount","type":"uint256","internalType":"uint256"},{"name":"to","type":"address","internalType":"address"}],"outputs":[],"stateMutability":"nonpayable"},{"type":"event","name":"GateStatusChanged","inputs":[{"name":"gate","type":"address","indexed":true,"internalType":"address"},{"name":"disabled","type":"bool","indexed":false,"internalType":"bool"},{"name":"manager","type":"address","indexed":true,"internalType":"address"}],"anonymous":false},{"type":"event","name":"GiftClaimed","inputs":[{"name":"giftId","type":"uint256","indexed":true,"internalType":"uint256"},{"name":"claimer","type":"address","indexed":true,"internalType":"address"},{"name":"recipient","type":"address","indexed":true,"internalType":"address"},{"name":"gate","type":"address","indexed":false,"internalType":"address"},{"name":"gateReason","type":"string","indexed":false,"internalType":"string"}],"anonymous":false},{"type":"event","name":"GiftCreated","inputs":[{"name":"giftId","type":"uint256","indexed":true,"internalType":"uint256"},{"name":"creator","type":"address","indexed":true,"internalType":"address"},{"name":"nftContract","type":"address","indexed":true,"internalType":"address"},{"name":"tokenId","type":"uint256","indexed":false,"internalType":"uint256"},{"name":"expiresAt","type":"uint40","indexed":false,"internalType":"uint40"},{"name":"gate","type":"address","indexed":false,"internalType":"address"},{"name":"giftMessage","type":"string","indexed":false,"internalType":"string"}],"anonymous":false},{"type":"event","name":"GiftLockTriggered","inputs":[{"name":"giftId","type":"uint256","indexed":true,"internalType":"uint256"},{"name":"attacker","type":"address","indexed":true,"internalType":"address"},{"name":"attempts","type":"uint32","indexed":false,"internalType":"uint32"},{"name":"lockUntil","type":"uint32","indexed":false,"internalType":"uint32"}],"anonymous":false},{"type":"event","name":"GiftReturned","inputs":[{"name":"giftId","type":"uint256","indexed":true,"internalType":"uint256"},{"name":"creator","type":"address","indexed":true,"internalType":"address"},{"name":"returnedBy","type":"address","indexed":true,"internalType":"address"},{"name":"timestamp","type":"uint256","indexed":false,"internalType":"uint256"}],"anonymous":false},{"type":"event","name":"Paused","inputs":[{"name":"account","type":"address","indexed":false,"internalType":"address"}],"anonymous":false},{"type":"event","name":"RoleAdminChanged","inputs":[{"name":"role","type":"bytes32","indexed":true,"internalType":"bytes32"},{"name":"previousAdminRole","type":"bytes32","indexed":true,"internalType":"bytes32"},{"name":"newAdminRole","type":"bytes32","indexed":true,"internalType":"bytes32"}],"anonymous":false},{"type":"event","name":"RoleGranted","inputs":[{"name":"role","type":"bytes32","indexed":true,"internalType":"bytes32"},{"name":"account","type":"address","indexed":true,"internalType":"address"},{"name":"sender","type":"address","indexed":true,"internalType":"address"}],"anonymous":false},{"type":"event","name":"RoleRevoked","inputs":[{"name":"role","type":"bytes32","indexed":true,"internalType":"bytes32"},{"name":"account","type":"address","indexed":true,"internalType":"address"},{"name":"sender","type":"address","indexed":true,"internalType":"address"}],"anonymous":false},{"type":"event","name":"Unpaused","inputs":[{"name":"account","type":"address","indexed":false,"internalType":"address"}],"anonymous":false},{"type":"error","name":"AccessControlBadConfirmation","inputs":[]},{"type":"error","name":"AccessControlUnauthorizedAccount","inputs":[{"name":"account","type":"address","internalType":"address"},{"name":"neededRole","type":"bytes32","internalType":"bytes32"}]},{"type":"error","name":"AuthorizationExpired","inputs":[{"name":"deadline","type":"uint256","internalType":"uint256"}]},{"type":"error","name":"BatchTooLarge","inputs":[{"name":"requested","type":"uint256","internalType":"uint256"},{"name":"maxAllowed","type":"uint256","internalType":"uint256"}]},{"type":"error","name":"EnforcedPause","inputs":[]},{"type":"error","name":"ExpectedPause","inputs":[]},{"type":"error","name":"GateCheckFailed","inputs":[{"name":"giftId","type":"uint256","internalType":"uint256"},{"name":"gate","type":"address","internalType":"address"},{"name":"reason","type":"string","internalType":"string"}]},{"type":"error","name":"GateDisabled","inputs":[{"name":"gate","type":"address","internalType":"address"}]},{"type":"error","name":"GiftAlreadyClaimed","inputs":[{"name":"giftId","type":"uint256","internalType":"uint256"}]},{"type":"error","name":"GiftAlreadyReturned","inputs":[{"name":"giftId","type":"uint256","internalType":"uint256"}]},{"type":"error","name":"GiftExpired","inputs":[{"name":"giftId","type":"uint256","internalType":"uint256"},{"name":"expiredAt","type":"uint256","internalType":"uint256"}]},{"type":"error","name":"GiftLocked","inputs":[{"name":"giftId","type":"uint256","internalType":"uint256"},{"name":"unlockTime","type":"uint256","internalType":"uint256"}]},{"type":"error","name":"GiftNotExpired","inputs":[{"name":"giftId","type":"uint256","internalType":"uint256"},{"name":"expiresAt","type":"uint256","internalType":"uint256"}]},{"type":"error","name":"GiftNotFound","inputs":[{"name":"giftId","type":"uint256","internalType":"uint256"}]},{"type":"error","name":"InsufficientGasForBatch","inputs":[{"name":"available","type":"uint256","internalType":"uint256"},{"name":"required","type":"uint256","internalType":"uint256"}]},{"type":"error","name":"InvalidGiftMessage","inputs":[{"name":"message","type":"string","internalType":"string"}]},{"type":"error","name":"InvalidRecipient","inputs":[{"name":"recipient","type":"address","internalType":"address"}]},{"type":"error","name":"InvalidSignature","inputs":[{"name":"hash","type":"bytes32","internalType":"bytes32"}]},{"type":"error","name":"InvalidTimeframe","inputs":[{"name":"timeframe","type":"uint256","internalType":"uint256"}]},{"type":"error","name":"NotGiftCreator","inputs":[{"name":"caller","type":"address","internalType":"address"},{"name":"creator","type":"address","internalType":"address"}]},{"type":"error","name":"PaymasterCooldownActive","inputs":[{"name":"user","type":"address","internalType":"address"},{"name":"cooldownEnd","type":"uint256","internalType":"uint256"}]},{"type":"error","name":"PaymasterLimitExceeded","inputs":[{"name":"user","type":"address","internalType":"address"},{"name":"dailyUsed","type":"uint32","internalType":"uint32"}]},{"type":"error","name":"ReentrancyGuardReentrantCall","inputs":[]},{"type":"error","name":"UnauthorizedClaimer","inputs":[{"name":"claimer","type":"address","internalType":"address"},{"name":"required","type":"address","internalType":"address"}]},{"type":"error","name":"WrongPassword","inputs":[{"name":"giftId","type":"uint256","internalType":"uint256"},{"name":"attemptsRemaining","type":"uint8","internalType":"uint8"}]}],"bytecode":{"object":"0x60c034620001a6576001600160401b0390601f620028b038819003918201601f1916830191848311848410176200019257808492602094604052833981010312620001a657516001600160a01b0381168103620001a657608052600160025567016345785d8a0000600d556064600e55620000836200007d62000419565b620001aa565b50620000986200009262000419565b62000235565b50620000ad620000a762000419565b620002e2565b50620000c2620000bc62000419565b62000380565b5060405160208101907f8b73c3c69bb8fe3d512ecc4cf759cc79239f7b179b0ffacaa9a75d522b39400f82527f98314e756a5d8eb44cac6397e2e0f620bb6da45102b49078de790bc08269e87160408201527f06c015bd22b4c69690933c1058878ebdfef31f9aaae40bbe86d8a09fe1b2972c60608201524660808201523060a082015260a0815260c08101928184109084111762000192578260405251902060a0526124379081620004598239608051818181610a9801528181610dc30152612394015260a05181610ef80152f35b634e487b7160e01b5f52604160045260245ffd5b5f80fd5b6001600160a01b039081165f8181527fad3228b676f7d3cd4284a5443f17f1962b36e491b30a40b2405849e597ba5fb5602052604081205490929060ff166200023057828052826020526040832082845260205260408320600160ff198254161790556200021762000419565b16915f80516020620028908339815191528180a4600190565b505090565b6001600160a01b039081165f8181527ff7c9542c591017a21c74b6f3fab6263c7952fc0aaf9db4c22a2a04ddc7f8674f602052604081205490927f65d7a28e3265b37a6474929f336521b332c1681b933f6cb9f3376673440d862a9160ff16620002dc575f805160206200289083398151915290828552846020526040852084865260205260408520600160ff19825416179055620002d362000419565b169380a4600190565b50505090565b6001600160a01b039081165f8181527f3c1b1854ab1360abbb06c8d4c6b2672d4b8cedc5eff522ab19e51d5cb8fdbd46602052604081205490927fbf233dd2aafeb4d50879c4aa5c81e96d92f6e6945c906a58f9f2d1c1631b4b269160ff16620002dc575f805160206200289083398151915290828552846020526040852084865260205260408520600160ff19825416179055620002d362000419565b6001600160a01b039081165f8181527f53265f13574f4f9bdaac8b0024b728c7e8ee8c3b4d75f3b9bd37759e08ad0af2602052604081205490927f0498d35e56bb1c2d05d040de8016a8b8b86c1984b13cea845dc2350948a204179160ff16620002dc575f805160206200289083398151915290828552846020526040852084865260205260408520600160ff19825416179055620002d35b60143610158062000443575b156200043f576013193601368111620001a6573560601c90565b3390565b506080516001600160a01b031633146200042556fe6080806040526004361015610052575b5036156100505760405162461bcd60e51b8152602060048201526012602482015271119d5b98dd1a5bdb881b9bdd08199bdd5b9960721b6044820152606490fd5b005b5f90813560e01c908162f714ce14611d7a57508063018686ef14611d5857806301ffc9a714611ccf57806304e51b5f14611cb357806305596b1414611c955780630b6621be14611c5657806312f5cb8214611c2c578063150b7a0214611bd55780631ecb350a146115b957806320df43591461157e578063248a9ca3146115525780632cbcf2ff146115345780632d8dc83e146115175780632f2ff15d146114da57806330e4349c146114be57806334050aab146114875780633560064a14610f1b5780633644e51514610ee057806336568abe14610e8e57806337d83e6514610e715780633d546da5146104715780633e4ea0c4146108da5780633f4ba83a14610e085780634368b73314610dea578063572b6c0514610d995780635c975abb14610d765780635fdbf1fe14610d4c5780636f2b34df14610d30578063767b1c4714610cce57806377607b2b14610ac75780637da0a87714610a825780637ebee30f14610a645780638456cb59146109f85780638b41d35f146109da57806391d148541461099157806399755998146109755780639afb583114610953578063a217fddf14610937578063a21df9f014610919578063a5512ed8146108da578063b3a917a3146107d2578063b546e43c14610797578063b6329c8214610756578063b99d176314610739578063bc197c81146106a9578063bf6713f61461060d578063cb95fe47146105da578063cfdbf254146105be578063d547741f1461057d578063d6065935146104ed578063da3d0462146104c0578063deb2e0a414610471578063e63ab1e914610436578063e7f0898214610419578063f23a6e61146103be578063f7185cfb146103a1578063f978fd6114610372578063fd26eaa1146103545763ffa1ad740361000f573461035157806003193601126103515760405160408101908082106001600160401b0383111761033d576103399160405260058152640312e302e360dc1b6020820152604051918291602083526020830190611ef1565b0390f35b634e487b7160e01b5f52604160045260245ffd5b80fd5b5034610351578060031936011261035157602060405162093a808152f35b50346103515760203660031901126103515760ff60406020926004358152600a84522054166040519015158152f35b5034610351578060031936011261035157602060405161012c8152f35b50346103515760a0366003190112610351576103d8611e8d565b506103e1611e77565b506084356001600160401b03811161041557610401903690600401611ea3565b505060405163f23a6e6160e01b8152602090f35b5080fd5b50346103515780600319360112610351576020604051610e108152f35b503461035157806003193601126103515760206040517f65d7a28e3265b37a6474929f336521b332c1681b933f6cb9f3376673440d862a8152f35b50346103515760203660031901126103515760043581526006602090815260409182902054825163ffffffff808316825282841c81169382019390935290831c90911691810191909152606090f35b50346103515760203660031901126103515760406104df600435612123565b825191151582526020820152f35b503461035157602036600319011261035157604061010091600435815260046020522060018060a01b0360ff81835416928260018201541692600282015490600460038401549301549460405196875260208701528116604086015260a01c606085015264ffffffffff81166080850152818160281c16151560a085015260301c16151560c083015260e0820152f35b5034610351576040366003190112610351576105ba60043561059d611e77565b90808452836020526105b5600160408620015461223d565b6122f8565b5080f35b5034610351578060031936011261035157602060405160198152f35b503461035157602036600319011261035157602090600435815260088252604060018060a01b0391205416604051908152f35b50346103515760203660031901126103515760c0906004358152600460205260ff6040822091600383015490828260281c165f1461069457506001905b60018060a01b0393848154169460018201541664ffffffffff6004600284015493015493604051978852166020870152604086015260a01c606085015260808401521660a0820152f35b90828160301c161561064a576002915061064a565b50346103515760a0366003190112610351576106c3611e8d565b506106cc611e77565b506001600160401b03604435818111610735576106ed903690600401612023565b505060643581811161073557610707903690600401612023565b505060843590811161041557610721903690600401611ea3565b505060405163bc197c8160e01b8152602090f35b8280fd5b503461035157806003193601126103515760206040516175308152f35b50346103515760203660031901126103515760043563ffffffff60e01b81168091036104155760408260ff9260209452600b84522054166040519015158152f35b503461035157806003193601126103515760206040517f0498d35e56bb1c2d05d040de8016a8b8b86c1984b13cea845dc2350948a204178152f35b5034610351576040366003190112610351576107ec611e8d565b6024359081151580920361073557610802612369565b6001600160a01b039081165f8181527f53265f13574f4f9bdaac8b0024b728c7e8ee8c3b4d75f3b9bd37759e08ad0af260205260409020549192917f0498d35e56bb1c2d05d040de8016a8b8b86c1984b13cea845dc2350948a204179060ff16156108bc5750506020827fbe6fac2f25d687e5583aa25f07d4c5f378211e127df6143b91721e66afea3ba8921692838652600782526040862060ff1981541660ff87161790556108b0612369565b1693604051908152a380f35b604492506040519163e2517d3f60e01b835260048301526024820152fd5b5034610351576020366003190112610351576109056040610339926004358152600560205220611f82565b604051918291602083526020830190611ef1565b5034610351578060031936011261035157602060405162278d008152f35b5034610351578060031936011261035157602090604051908152f35b5034610351578060031936011261035157602060405166b1a2bc2ec500008152f35b50346103515780600319360112610351576020604051600a8152f35b50346103515760403660031901126103515760406109ad611e77565b91600435815280602052209060018060a01b03165f52602052602060ff60405f2054166040519015158152f35b50346103515780600319360112610351576020604051620151808152f35b5034610351578060031936011261035157610a116121d1565b610a196123c2565b600160ff19815416176001557f62e78cea01bee320cd4e420270b5ea74000d11b0c9f74754ebdbfc544b05a2586020610a50612369565b6040516001600160a01b039091168152a180f35b50346103515780600319360112610351576020600354604051908152f35b50346103515780600319360112610351576040517f00000000000000000000000000000000000000000000000000000000000000006001600160a01b03168152602090f35b503461035157602036600319011261035157600435610ae46123e0565b610aec6123c2565b80825260046020526040822080546001600160a01b0391908216908115610cb55760038101805460ff8160281c16610c9c5760ff8160301c16610c83578385610b33612369565b1603610c5c5764ffffffffff8116804210610c30575066010000000000009066ff0000000000001916179055848360018301541692600283015460a01c843b1561073557604051632142170760e11b81523060048201526001600160a01b039290921660248301526001600160601b031660448201529281908490606490829084905af1928315610c23578493610c06575b5050541690610bd2612369565b16917fe4b50cbb1ed644e741cfdde60d63f62250362c8331481b3972e0f07c05dd6bfd6020604051428152a4600160025580f35b610c1291929350611f4e565b610c1f578190845f610bc5565b8380fd5b50604051903d90823e3d90fd5b604051633765472560e21b81526004810188905264ffffffffff919091166024820152604490fd5b0390fd5b60448585610c68612369565b604051634e9b109b60e11b8152921660048301526024820152fd5b60405163d54c0a2760e01b815260048101879052602490fd5b60405163314a9d7b60e21b815260048101879052602490fd5b60405163e109846960e01b815260048101859052602490fd5b5034610351576020366003190112610351576080906040906001600160a01b03610cf6611e8d565b168152600c60205220546040519063ffffffff908181168352818160201c166020840152818160401c16604084015260601c166060820152f35b5034610351578060031936011261035157602060405160038152f35b50346103515760203660031901126103515760406020916004358152600983522054604051908152f35b5034610351578060031936011261035157602060ff600154166040519015158152f35b5034610351576020366003190112610351576020610db5611e8d565b6040519060018060a01b03807f0000000000000000000000000000000000000000000000000000000000000000169116148152f35b50346103515780600319360112610351576020600d54604051908152f35b5034610351578060031936011261035157610e216121d1565b60015460ff811615610e5f5760ff19166001557f5db9ee0a495bf2e6ff9c91a7834c1ba4fdd244a5e8aa4e537bd38aeae4b073aa6020610a50612369565b604051638dfc202b60e01b8152600490fd5b503461035157806003193601126103515760206040516103848152f35b503461035157604036600319011261035157610ea8611e77565b6001600160a01b0380610eb9612369565b1690821603610ece576105ba906004356122f8565b60405163334bd91960e11b8152600490fd5b503461035157806003193601126103515760206040517f00000000000000000000000000000000000000000000000000000000000000008152f35b50346103515760e036600319011261035157610f35611e77565b6044356001600160401b03811161073557610f54903690600401611ea3565b91906084359060a4356001600160401b03811161148357610f79903690600401611ea3565b92909160c435916001600160a01b038316830361147f57610f986123e0565b610fa06123c2565b6001600160a01b0386161561145e57600687108015611454575b6114055760c885116113e257806113915750610384955b600354965f19881461137d5761102864ffffffffff610ffa61101a9360018c0160035542612073565b16936040519283918b60208401964692600130930191606435918a612094565b03601f198101835282611f61565b519020611033612369565b9060405191826101008101106001600160401b036101008501111761033d57610100830160405260018060a01b0316825260018060a01b038716602083015260018060a01b03841660408301526001600160601b036004351660608301528260808301528860a08301528860c083015260e08201526001870188526004602052600460e060408a209260018060a01b038151166001600160601b0360a01b90818654161785556001850160018060a01b036020840151168282541617905560018060a01b0360408301511690606083015160a01b161760028501556003840164ffffffffff60808301511681549065ff000000000060a0850151151560281b169066ff00000000000060c0860151151560301b169266ffffffffffffff19161717179055015191015583611264575b8661116b612369565b6001600160a01b0387163b1561041557604051632142170760e11b81526001600160a01b039182166004808301919091523060248301523560448201529082908290606490829084908c165af1801561125957611241575b507fb39e61510e441ff9984ea3925f3035cebc7e973b8d209a602b14f4f50a889b4293611236915060016001600160a01b036111fd612369565b169760405195869560043587526020870152828060a01b0316604086015260806060860152818060a01b03169801956080840191612053565b0390a4600160025580f35b61124a90611f4e565b61125557865f6111c3565b8680fd5b6040513d84823e3d90fd5b6005602052604087206001600160401b038511611369576112858154611f16565b601f8111611328575b508488601f82116001146112c55789916112ba575b508560011b905f198760031b1c1916179055611162565b90508401355f6112a3565b828a5260208a209150895b601f1988168110611310575086601f198116106112f7575b5050600185811b019055611162565b8501355f19600388901b60f8161c191690555f806112e8565b9091602060018192858a0135815501930191016112d0565b81895260208920601f870160051c810160208810611362575b601f830160051c8201811061135757505061128e565b8a8155600101611341565b5080611341565b634e487b7160e01b88526041600452602488fd5b634e487b7160e01b89526011600452602489fd5b600181036113a4575062093a8095610fd1565b600281036113b757506213c68095610fd1565b600381036113ca575062278d0095610fd1565b60249060405190632d1c6e7560e11b82526004820152fd5b6040516378b6bc4960e01b81526020600482015280610c58602482018888612053565b60405162461bcd60e51b815260206004820152602160248201527f50617373776f7264206d75737420626520362d313238206368617261637465726044820152607360f81b6064820152608490fd5b5060808711610fba565b604051630bc2c5df60e11b81526001600160a01b0387166004820152602490fd5b5f80fd5b8580fd5b50346103515760203660031901126103515764ffffffffff6003604060209360043581526004855220015416421015604051908152f35b5034610351578060031936011261035157602060405160058152f35b5034610351576040366003190112610351576105ba6004356114fa611e77565b9080845283602052611512600160408620015461223d565b612272565b5034610351578060031936011261035157602060405161c3508152f35b503461035157806003193601126103515760206040516213c6808152f35b503461035157602036600319011261035157600160406020926004358152808452200154604051908152f35b503461035157806003193601126103515760206040517fbf233dd2aafeb4d50879c4aa5c81e96d92f6e6945c906a58f9f2d1c1631b4b268152f35b503461035157608036600319011261035157602480356001600160401b038111610735576115eb903690600401611ea3565b6064929192356001600160401b038111611bd15761160d903690600401611ea3565b9190936116186123e0565b6116206123c2565b600435865260209360048552604087209260018060a01b0384541615611bb9576003840192835460ff8160281c16611ba15760ff8160301c16611b895764ffffffffff1680421015611b5d5750600435895260068752604089209081549063ffffffff93848360401c16804210611b3e57506116b561101a916040519283918d8301954691309160043591604435918a612094565b5190206004870154036119fa5750505090829160028894019687549560018060a01b0387161515806119db575b611809575b5050815465ff00000000001916650100000000001790915550600101546001600160a01b0316611715612369565b90803b1561073557604051632142170760e11b81523060048201526001600160a01b0392909216602483015260a09390931c6044820152918290606490829084905af180156117fe576117eb575b5061176c612369565b916040611777612369565b915481516001600160a01b03918216815293840191909152601460408401527314dd58d8d95cdcd99d5b1b1e4818db185a5b595960621b6060840152908116921690600435907facf38fa334fce65c14d23b8b76355c94e743953387ce733b643cf907293e7a4490608090a4600160025580f35b6117f790939193611f4e565b915f611763565b6040513d86823e3d90fd5b6118199896989795919297612369565b611853604051948593849363c2e63def60e01b855260018060a01b031660048501526004358c850152606060448501526064840191612053565b03816001600160a01b038b1661c350fa908189918a93611926575b506118cf5760405163052746d760e41b815260048035908201526001600160a01b0389168189015260606044820152601860648201527f4761746520766572696669636174696f6e206661696c65640000000000000000608482015260a490fd5b9694969591929395156118e95750509085915f80806116e7565b60405163052746d760e41b815260048035908201526001600160a01b03861692810192909252606060448301528190610c58906064830190611ef1565b915091503d808a833e6119398183611f61565b8101906040818303126119d75780519081151582036119d35786810151906001600160401b0382116119bc570182601f820112156119d35780516001600160401b0381116119c05760405193611998601f8301601f19168a0186611f61565b8185528882840101116119bc576119b491888086019101611ed0565b90915f61186e565b8b80fd5b634e487b7160e01b8c526041600452898cfd5b8a80fd5b8980fd5b506001600160a01b038716865260078852604086205460ff16156116e2565b829450878a938216868114611b2b57908660018195949301169167ffffffff0000000042831b1680846001600160401b03198416171785556005841015611aa1575b5050505054169260058410155f14611a74575060449250905b60ff604051926329652e6360e11b845260043560048501521690820152fd5b9192600503918211611a8e57509060ff6044921690611a55565b634e487b7160e01b815260116004529050fd5b836bffffffff0000000000000000611ac388611abc846120c9565b1642612073565b60401b16926001600160601b0319161717179081845584611ae2612369565b9260405194855260401c169083015260018060a01b0316907f503c65804d644a363835a30c5d8103a59f1bc45e7f7314b4a9e8448d3d060237604060043592a385808080611a3c565b634e487b7160e01b855260116004528585fd5b866044916040519163e976f56360e01b83526004356004840152820152fd5b60405160016204ef1760e21b03198152600480359082015264ffffffffff919091166024820152604490fd5b8360405163d54c0a2760e01b81526004356004820152fd5b8360405163314a9d7b60e21b81526004356004820152fd5b5060405163e109846960e01b81526004803590820152fd5b8480fd5b503461035157608036600319011261035157611bef611e8d565b50611bf8611e77565b506064356001600160401b03811161041557611c18903690600401611ea3565b5050604051630a85bd0160e11b8152602090f35b50346103515760203660031901126103515760406020916004358152600f83522054604051908152f35b50346103515760203660031901126103515760209060ff906040906001600160a01b03611c81611e8d565b168152600784522054166040519015158152f35b50346103515780600319360112610351576020600e54604051908152f35b5034610351578060031936011261035157602060405160018152f35b50346103515760203660031901126103515760043563ffffffff60e01b811680910361041557602090630a85bd0160e11b8114908115611d47575b8115611d1c575b506040519015158152f35b637965db0b60e01b811491508115611d36575b5082611d11565b6301ffc9a760e01b14905082611d2f565b630271189760e51b81149150611d0a565b5034610351578060031936011261035157602060405166071afd498d00008152f35b9050346104155760403660031901126104155760043590611d99611e77565b611da1612369565b848052602085815260408087206001600160a01b03938416808952925286205491939160ff1615611e5c575050168015611e4457478211611e0857828080938193828215611dff575bf115611df35780f35b604051903d90823e3d90fd5b506108fc611dea565b60405162461bcd60e51b8152602060048201526014602482015273496e73756666696369656e742062616c616e636560601b6044820152606490fd5b60249060405190630bc2c5df60e11b82526004820152fd5b63e2517d3f60e01b8252600482015260248101859052604490fd5b602435906001600160a01b038216820361147f57565b600435906001600160a01b038216820361147f57565b9181601f8401121561147f578235916001600160401b03831161147f576020838186019501011161147f57565b5f5b838110611ee15750505f910152565b8181015183820152602001611ed2565b90602091611f0a81518092818552858086019101611ed0565b601f01601f1916010190565b90600182811c92168015611f44575b6020831014611f3057565b634e487b7160e01b5f52602260045260245ffd5b91607f1691611f25565b6001600160401b03811161033d57604052565b90601f801991011681019081106001600160401b0382111761033d57604052565b9060405191825f825492611f9584611f16565b9081845260019485811690815f146120005750600114611fc0575b5050611fbe92500383611f61565b565b909391505f52602090815f20935f915b818310611fe8575050611fbe93508201015f80611fb0565b85548884018501529485019487945091830191611fd0565b915050611fbe94506020925060ff191682840152151560051b8201015f80611fb0565b9181601f8401121561147f578235916001600160401b03831161147f576020808501948460051b01011161147f57565b908060209392818452848401375f828201840152601f01601f1916010190565b9190820180921161208057565b634e487b7160e01b5f52601160045260245ffd5b82607497959392969496823701938452602084015260601b6bffffffffffffffffffffffff1916604083015260548201520190565b63ffffffff809116600581111561211b57600419018181116120805781169060ff82116120805761012c91600183821b938404911b036120805762015180918281111561211557505090565b16919050565b505061012c90565b5f90815260046020526040812080549192916001600160a01b03161580156121c0575b80156121af575b6121aa57600364ffffffffff9101541691824210156121a457600660205263ffffffff604082205460401c1642106121a457428303928311612190575060019190565b634e487b7160e01b81526011600452602490fd5b91508190565b508190565b5060ff600382015460301c1661214d565b5060ff600382015460281c16612146565b6121d9612369565b6001600160a01b03165f8181527ff7c9542c591017a21c74b6f3fab6263c7952fc0aaf9db4c22a2a04ddc7f8674f60205260409020547f65d7a28e3265b37a6474929f336521b332c1681b933f6cb9f3376673440d862a9060ff16156108bc575050565b612245612369565b90805f525f60205260405f209160018060a01b031691825f5260205260ff60405f205416156108bc575050565b5f818152602081815260408083206001600160a01b039586168085529252822054919390929160ff166122f2577f2f8788117e7eff1d82e926ec794901d17c78024a50270940304540a733656f0d90828552846020526040852084865260205260408520600160ff198254161790556122e9612369565b169380a4600190565b50505090565b5f818152602081815260408083206001600160a01b039586168085529252822054919390929160ff16156122f2577ff6391f5c32d9c69d2a47ea670b442974b53935d1edc7fd64eb21e047a839171b9082855284602052604085208486526020526040852060ff1981541690556122e95b601436101580612390575b1561238c57601319360136811161147f573560601c90565b3390565b50337f00000000000000000000000000000000000000000000000000000000000000006001600160a01b031614612374565b60ff600154166123ce57565b60405163d93c066560e01b8152600490fd5b60028054146123ef5760028055565b604051633ee5aeb560e01b8152600490fdfea2646970667358221220607cb3b0fd64c2628f85ee330500d2e19f626a54639227e6349323924ddfcf1664736f6c634300081400332f8788117e7eff1d82e926ec794901d17c78024a50270940304540a733656f0d","linkReferences":{}},"methodIdentifiers":{"BASE_COOLDOWN()":"f7185cfb","DEFAULT_ADMIN_ROLE()":"a217fddf","DOMAIN_SEPARATOR()":"3644e515","EMERGENCY_ROLE()":"20df4359","FAILED_COOLDOWN()":"e7f08982","FIFTEEN_DAYS()":"2cbcf2ff","FIFTEEN_MINUTES()":"37d83e65","GATE_GAS_LIMIT()":"2d8dc83e","GATE_MANAGER_ROLE()":"b546e43c","IMMUTABLE()":"04e51b5f","INCENTIVE_PER_ITEM()":"018686ef","MAX_ATTEMPTS()":"30e4349c","MAX_BATCH_SIZE()":"cfdbf254","MAX_COOLDOWN()":"8b41d35f","MAX_DAILY_ATTEMPTS()":"99755998","MAX_FAILED_ATTEMPTS()":"6f2b34df","MAX_INCENTIVE_PER_TX()":"9afb5831","MIN_GAS_PER_ITEM()":"b99d1763","PAUSER_ROLE()":"e63ab1e9","SEVEN_DAYS()":"fd26eaa1","THIRTY_DAYS()":"a21df9f0","VERSION()":"ffa1ad74","attemptInfo(uint256)":"3d546da5","canClaimGift(uint256)":"da3d0462","claimGift(uint256,string,bytes32,bytes)":"1ecb350a","createGift(uint256,address,string,bytes32,uint256,string,address)":"3560064a","disabledGates(address)":"0b6621be","getAttemptInfo(uint256)":"deb2e0a4","getGift(uint256)":"bf6713f6","getGiftMessage(uint256)":"3e4ea0c4","getRoleAdmin(bytes32)":"248a9ca3","giftCounter()":"7ebee30f","giftGateOverride(uint256)":"cb95fe47","giftMessages(uint256)":"a5512ed8","giftNonces(uint256)":"5fdbf1fe","gifts(uint256)":"d6065935","grantRole(bytes32,address)":"2f2ff15d","hasRole(bytes32,address)":"91d14854","hourlyFailedOps(uint256)":"12f5cb82","isGiftExpired(uint256)":"34050aab","isTrustedForwarder(address)":"572b6c05","maxFailedUserOpsPerHour()":"05596b14","onERC1155BatchReceived(address,address,uint256[],uint256[],bytes)":"bc197c81","onERC1155Received(address,address,uint256,uint256,bytes)":"f23a6e61","onERC721Received(address,address,uint256,bytes)":"150b7a02","pause()":"8456cb59","paused()":"5c975abb","paymasterData(address)":"767b1c47","paymasterMinBalance()":"4368b733","renounceRole(bytes32,address)":"36568abe","returnExpiredGift(uint256)":"77607b2b","revokeRole(bytes32,address)":"d547741f","setGateStatus(address,bool)":"b3a917a3","supportsInterface(bytes4)":"01ffc9a7","trustedForwarder()":"7da0a877","unpause()":"3f4ba83a","usedSignatures(bytes32)":"f978fd61","whitelistedMethods(bytes4)":"b6329c82","withdraw(uint256,address)":"00f714ce"},"id":1}